{
  "contractName": "JobBoard",
  "abi": [
    {
      "constant": true,
      "inputs": [
        {
          "name": "",
          "type": "uint256"
        }
      ],
      "name": "jobs",
      "outputs": [
        {
          "name": "jobId",
          "type": "uint256"
        },
        {
          "name": "title",
          "type": "string"
        },
        {
          "name": "budget",
          "type": "uint256"
        },
        {
          "name": "employer",
          "type": "address"
        },
        {
          "name": "freelancer",
          "type": "address"
        },
        {
          "name": "isTaken",
          "type": "bool"
        },
        {
          "name": "isCompleted",
          "type": "bool"
        },
        {
          "name": "isPaid",
          "type": "bool"
        },
        {
          "name": "status",
          "type": "uint8"
        }
      ],
      "payable": false,
      "stateMutability": "view",
      "type": "function",
      "signature": "0x180aedf3"
    },
    {
      "constant": true,
      "inputs": [],
      "name": "jobCount",
      "outputs": [
        {
          "name": "",
          "type": "uint256"
        }
      ],
      "payable": false,
      "stateMutability": "view",
      "type": "function",
      "signature": "0x4c5d8a0f"
    },
    {
      "constant": true,
      "inputs": [
        {
          "name": "",
          "type": "uint256"
        },
        {
          "name": "",
          "type": "address"
        },
        {
          "name": "",
          "type": "uint256"
        }
      ],
      "name": "jobMessageRefs",
      "outputs": [
        {
          "name": "sender",
          "type": "address"
        },
        {
          "name": "ipfsCid",
          "type": "string"
        },
        {
          "name": "timestamp",
          "type": "uint256"
        }
      ],
      "payable": false,
      "stateMutability": "view",
      "type": "function",
      "signature": "0xf91d3cfd"
    },
    {
      "anonymous": false,
      "inputs": [
        {
          "indexed": false,
          "name": "jobId",
          "type": "uint256"
        },
        {
          "indexed": false,
          "name": "employer",
          "type": "address"
        },
        {
          "indexed": false,
          "name": "title",
          "type": "string"
        },
        {
          "indexed": false,
          "name": "budget",
          "type": "uint256"
        }
      ],
      "name": "JobPosted",
      "type": "event",
      "signature": "0xd347156c0e050f531434f3eac5fc2137040ab077ca656f465275ebe566aaf115"
    },
    {
      "anonymous": false,
      "inputs": [
        {
          "indexed": false,
          "name": "jobId",
          "type": "uint256"
        },
        {
          "indexed": false,
          "name": "freelancer",
          "type": "address"
        }
      ],
      "name": "JobApplied",
      "type": "event",
      "signature": "0xffa837d183240a5f25cbd643a8eade702c0c9c3e186c59c7d929e4f1a3438d86"
    },
    {
      "anonymous": false,
      "inputs": [
        {
          "indexed": false,
          "name": "jobId",
          "type": "uint256"
        },
        {
          "indexed": false,
          "name": "freelancer",
          "type": "address"
        },
        {
          "indexed": false,
          "name": "amount",
          "type": "uint256"
        }
      ],
      "name": "PaymentReleased",
      "type": "event",
      "signature": "0x21d71db5be59bb9fa133895586b7404307dd33fb93b16db09dc6f1d9d7d231b0"
    },
    {
      "anonymous": false,
      "inputs": [
        {
          "indexed": false,
          "name": "jobId",
          "type": "uint256"
        },
        {
          "indexed": false,
          "name": "freelancer",
          "type": "address"
        }
      ],
      "name": "FreelancerSelected",
      "type": "event",
      "signature": "0x038b6dd13ab376cd96a6924f79dde494c7fbb5ea9f8c950b668d934645995cfd"
    },
    {
      "anonymous": false,
      "inputs": [
        {
          "indexed": false,
          "name": "jobId",
          "type": "uint256"
        },
        {
          "indexed": false,
          "name": "from",
          "type": "address"
        },
        {
          "indexed": false,
          "name": "to",
          "type": "address"
        },
        {
          "indexed": false,
          "name": "ipfsCid",
          "type": "string"
        }
      ],
      "name": "MessageSent",
      "type": "event",
      "signature": "0xf5e1aca9a1b10d753e1072d0d2631aa02b5dd19426fc594b430b934f35989768"
    },
    {
      "constant": false,
      "inputs": [
        {
          "name": "_title",
          "type": "string"
        },
        {
          "name": "_budget",
          "type": "uint256"
        }
      ],
      "name": "postJob",
      "outputs": [],
      "payable": true,
      "stateMutability": "payable",
      "type": "function",
      "signature": "0xeb9a4e93"
    },
    {
      "constant": false,
      "inputs": [
        {
          "name": "_jobId",
          "type": "uint256"
        }
      ],
      "name": "applyForJob",
      "outputs": [],
      "payable": false,
      "stateMutability": "nonpayable",
      "type": "function",
      "signature": "0xe0c94ae5"
    },
    {
      "constant": false,
      "inputs": [
        {
          "name": "_jobId",
          "type": "uint256"
        },
        {
          "name": "_freelancer",
          "type": "address"
        }
      ],
      "name": "selectFreelancer",
      "outputs": [],
      "payable": false,
      "stateMutability": "nonpayable",
      "type": "function",
      "signature": "0x380deabc"
    },
    {
      "constant": false,
      "inputs": [
        {
          "name": "_jobId",
          "type": "uint256"
        }
      ],
      "name": "releasePayment",
      "outputs": [],
      "payable": false,
      "stateMutability": "nonpayable",
      "type": "function",
      "signature": "0x88685cd9"
    },
    {
      "constant": true,
      "inputs": [
        {
          "name": "_jobId",
          "type": "uint256"
        }
      ],
      "name": "getApplicants",
      "outputs": [
        {
          "name": "",
          "type": "address[]"
        }
      ],
      "payable": false,
      "stateMutability": "view",
      "type": "function",
      "signature": "0x6cf5d86e"
    },
    {
      "constant": true,
      "inputs": [
        {
          "name": "_jobId",
          "type": "uint256"
        }
      ],
      "name": "getJob",
      "outputs": [
        {
          "name": "",
          "type": "string"
        },
        {
          "name": "",
          "type": "uint256"
        },
        {
          "name": "",
          "type": "address"
        },
        {
          "name": "",
          "type": "address"
        },
        {
          "name": "",
          "type": "uint8"
        }
      ],
      "payable": false,
      "stateMutability": "view",
      "type": "function",
      "signature": "0xbf22c457"
    },
    {
      "constant": false,
      "inputs": [
        {
          "name": "_jobId",
          "type": "uint256"
        },
        {
          "name": "_to",
          "type": "address"
        },
        {
          "name": "_ipfsCid",
          "type": "string"
        }
      ],
      "name": "sendMessageRef",
      "outputs": [],
      "payable": false,
      "stateMutability": "nonpayable",
      "type": "function",
      "signature": "0xe6170a9d"
    },
    {
      "constant": true,
      "inputs": [
        {
          "name": "_jobId",
          "type": "uint256"
        },
        {
          "name": "_participant",
          "type": "address"
        }
      ],
      "name": "getMessageRefs",
      "outputs": [
        {
          "components": [
            {
              "name": "sender",
              "type": "address"
            },
            {
              "name": "ipfsCid",
              "type": "string"
            },
            {
              "name": "timestamp",
              "type": "uint256"
            }
          ],
          "name": "",
          "type": "tuple[]"
        }
      ],
      "payable": false,
      "stateMutability": "view",
      "type": "function",
      "signature": "0xcae250b7"
    }
  ],
  "bytecode": "0x608060405260016000806101000a81548160ff021916908315150217905550612c9b8061002d6000396000f3fe6080604052600436106100af576000357c0100000000000000000000000000000000000000000000000000000000900463ffffffff168063180aedf3146100b4578063380deabc146100f95780634c5d8a0f146101225780636cf5d86e1461014d57806388685cd91461018a578063bf22c457146101b3578063cae250b7146101f4578063e0c94ae514610231578063e6170a9d1461025a578063eb9a4e9314610283578063f91d3cfd1461029f575b600080fd5b3480156100c057600080fd5b506100db60048036036100d69190810190611f45565b6102de565b6040516100f0999897969594939291906129ed565b60405180910390f35b34801561010557600080fd5b50610120600480360361011b9190810190611f6e565b610438565b005b34801561012e57600080fd5b506101376107e7565b60405161014491906128b1565b60405180910390f35b34801561015957600080fd5b50610174600480360361016f9190810190611f45565b6107ed565b6040516101819190612613565b60405180910390f35b34801561019657600080fd5b506101b160048036036101ac9190810190611f45565b610981565b005b3480156101bf57600080fd5b506101da60048036036101d59190810190611f45565b610d8c565b6040516101eb959493929190612657565b60405180910390f35b34801561020057600080fd5b5061021b60048036036102169190810190611f6e565b610f0b565b6040516102289190612635565b60405180910390f35b34801561023d57600080fd5b5061025860048036036102539190810190611f45565b6111bd565b005b34801561026657600080fd5b50610281600480360361027c9190810190611faa565b611491565b005b61029d60048036036102989190810190611ef1565b61179b565b005b3480156102ab57600080fd5b506102c660048036036102c19190810190612011565b611aa4565b6040516102d5939291906125d5565b60405180910390f35b6003602052806000526040600020600091509050806000015490806001018054600181600116156101000203166002900480601f0160208091040260200160405190810160405280929190818152602001828054600181600116156101000203166002900480156103905780601f1061036557610100808354040283529160200191610390565b820191906000526020600020905b81548152906001019060200180831161037357829003601f168201915b5050505050908060020154908060030160009054906101000a900473ffffffffffffffffffffffffffffffffffffffff16908060040160009054906101000a900473ffffffffffffffffffffffffffffffffffffffff16908060040160149054906101000a900460ff16908060040160159054906101000a900460ff16908060040160169054906101000a900460ff16908060040160179054906101000a900460ff16905089565b816002548110151561047f576040517f08c379a000000000000000000000000000000000000000000000000000000000815260040161047690612771565b60405180910390fd5b826003600082815260200190815260200160002060030160009054906101000a900473ffffffffffffffffffffffffffffffffffffffff1673ffffffffffffffffffffffffffffffffffffffff163373ffffffffffffffffffffffffffffffffffffffff16141515610526576040517f08c379a000000000000000000000000000000000000000000000000000000000815260040161051d90612791565b60405180910390fd5b60006003600086815260200190815260200160002090506000600281111561054a57fe5b8160040160179054906101000a900460ff16600281111561056757fe5b1415156105a9576040517f08c379a00000000000000000000000000000000000000000000000000000000081526004016105a0906127f1565b60405180910390fd5b600073ffffffffffffffffffffffffffffffffffffffff168160040160009054906101000a900473ffffffffffffffffffffffffffffffffffffffff1673ffffffffffffffffffffffffffffffffffffffff1614151561063e576040517f08c379a000000000000000000000000000000000000000000000000000000000815260040161063590612711565b60405180910390fd5b600080905060008090505b82600501805490508110156106dd578573ffffffffffffffffffffffffffffffffffffffff16836005018281548110151561068057fe5b9060005260206000200160009054906101000a900473ffffffffffffffffffffffffffffffffffffffff1673ffffffffffffffffffffffffffffffffffffffff1614156106d057600191506106dd565b8080600101915050610649565b50801515610720576040517f08c379a000000000000000000000000000000000000000000000000000000000815260040161071790612811565b60405180910390fd5b848260040160006101000a81548173ffffffffffffffffffffffffffffffffffffffff021916908373ffffffffffffffffffffffffffffffffffffffff16021790555060018260040160176101000a81548160ff0219169083600281111561078457fe5b021790555060018260040160146101000a81548160ff0219169083151502179055507f038b6dd13ab376cd96a6924f79dde494c7fbb5ea9f8c950b668d934645995cfd86866040516107d79291906128cc565b60405180910390a1505050505050565b60025481565b60608160025481101515610836576040517f08c379a000000000000000000000000000000000000000000000000000000000815260040161082d90612771565b60405180910390fd5b826003600082815260200190815260200160002060030160009054906101000a900473ffffffffffffffffffffffffffffffffffffffff1673ffffffffffffffffffffffffffffffffffffffff163373ffffffffffffffffffffffffffffffffffffffff161415156108dd576040517f08c379a00000000000000000000000000000000000000000000000000000000081526004016108d490612791565b60405180910390fd5b6003600085815260200190815260200160002060050180548060200260200160405190810160405280929190818152602001828054801561097357602002820191906000526020600020905b8160009054906101000a900473ffffffffffffffffffffffffffffffffffffffff1673ffffffffffffffffffffffffffffffffffffffff1681526020019060010190808311610929575b505050505092505050919050565b80600254811015156109c8576040517f08c379a00000000000000000000000000000000000000000000000000000000081526004016109bf90612771565b60405180910390fd5b816003600082815260200190815260200160002060030160009054906101000a900473ffffffffffffffffffffffffffffffffffffffff1673ffffffffffffffffffffffffffffffffffffffff163373ffffffffffffffffffffffffffffffffffffffff16141515610a6f576040517f08c379a0000000000000000000000000000000000000000000000000000000008152600401610a6690612791565b60405180910390fd5b6000809054906101000a900460ff161515610abf576040517f08c379a0000000000000000000000000000000000000000000000000000000008152600401610ab690612871565b60405180910390fd5b60008060006101000a81548160ff0219169083151502179055506000600360008581526020019081526020016000209050600073ffffffffffffffffffffffffffffffffffffffff168160040160009054906101000a900473ffffffffffffffffffffffffffffffffffffffff1673ffffffffffffffffffffffffffffffffffffffff1614151515610b86576040517f08c379a0000000000000000000000000000000000000000000000000000000008152600401610b7d906127b1565b60405180910390fd5b80600201543073ffffffffffffffffffffffffffffffffffffffff163110151515610be6576040517f08c379a0000000000000000000000000000000000000000000000000000000008152600401610bdd90612751565b60405180910390fd5b8060040160169054906101000a900460ff16151515610c3a576040517f08c379a0000000000000000000000000000000000000000000000000000000008152600401610c31906126f1565b60405180910390fd5b60018160040160166101000a81548160ff02191690831515021790555060028160040160176101000a81548160ff02191690836002811115610c7857fe5b021790555060018160040160156101000a81548160ff0219169083151502179055508060040160009054906101000a900473ffffffffffffffffffffffffffffffffffffffff1673ffffffffffffffffffffffffffffffffffffffff166108fc82600201549081150290604051600060405180830381858888f19350505050158015610d08573d6000803e3d6000fd5b507f21d71db5be59bb9fa133895586b7404307dd33fb93b16db09dc6f1d9d7d231b0848260040160009054906101000a900473ffffffffffffffffffffffffffffffffffffffff168360020154604051610d64939291906129b6565b60405180910390a15060016000806101000a81548160ff021916908315150217905550505050565b60606000806000808560025481101515610ddb576040517f08c379a0000000000000000000000000000000000000000000000000000000008152600401610dd290612771565b60405180910390fd5b60006003600089815260200190815260200160002090508060010181600201548260030160009054906101000a900473ffffffffffffffffffffffffffffffffffffffff168360040160009054906101000a900473ffffffffffffffffffffffffffffffffffffffff168460040160179054906101000a900460ff16848054600181600116156101000203166002900480601f016020809104026020016040519081016040528092919081815260200182805460018160011615610100020316600290048015610eec5780601f10610ec157610100808354040283529160200191610eec565b820191906000526020600020905b815481529060010190602001808311610ecf57829003601f168201915b5050505050945081915096509650965096509650505091939590929450565b60608260025481101515610f54576040517f08c379a0000000000000000000000000000000000000000000000000000000008152600401610f4b90612771565b60405180910390fd5b6003600085815260200190815260200160002060030160009054906101000a900473ffffffffffffffffffffffffffffffffffffffff1673ffffffffffffffffffffffffffffffffffffffff163373ffffffffffffffffffffffffffffffffffffffff161480610fca5750610fc98433611baf565b5b151561100b576040517f08c379a000000000000000000000000000000000000000000000000000000000815260040161100290612851565b60405180910390fd5b6001600085815260200190815260200160002060008473ffffffffffffffffffffffffffffffffffffffff1673ffffffffffffffffffffffffffffffffffffffff168152602001908152602001600020805480602002602001604051908101604052809291908181526020016000905b828210156111b05783829060005260206000209060030201606060405190810160405290816000820160009054906101000a900473ffffffffffffffffffffffffffffffffffffffff1673ffffffffffffffffffffffffffffffffffffffff1673ffffffffffffffffffffffffffffffffffffffff168152602001600182018054600181600116156101000203166002900480601f01602080910402602001604051908101604052809291908181526020018280546001816001161561010002031660029004801561118e5780601f106111635761010080835404028352916020019161118e565b820191906000526020600020905b81548152906001019060200180831161117157829003601f168201915b505050505081526020016002820154815250508152602001906001019061107b565b5050505091505092915050565b8060025481101515611204576040517f08c379a00000000000000000000000000000000000000000000000000000000081526004016111fb90612771565b60405180910390fd5b60006003600084815260200190815260200160002090506000600281111561122857fe5b8160040160179054906101000a900460ff16600281111561124557fe5b141515611287576040517f08c379a000000000000000000000000000000000000000000000000000000000815260040161127e90612831565b60405180910390fd5b8060030160009054906101000a900473ffffffffffffffffffffffffffffffffffffffff1673ffffffffffffffffffffffffffffffffffffffff163373ffffffffffffffffffffffffffffffffffffffff161415151561131c576040517f08c379a0000000000000000000000000000000000000000000000000000000008152600401611313906126b1565b60405180910390fd5b60008090505b81600501805490508110156113ea573373ffffffffffffffffffffffffffffffffffffffff16826005018281548110151561135957fe5b9060005260206000200160009054906101000a900473ffffffffffffffffffffffffffffffffffffffff1673ffffffffffffffffffffffffffffffffffffffff16141515156113dd576040517f08c379a00000000000000000000000000000000000000000000000000000000081526004016113d4906126d1565b60405180910390fd5b8080600101915050611322565b50806005013390806001815401808255809150509060018203906000526020600020016000909192909190916101000a81548173ffffffffffffffffffffffffffffffffffffffff021916908373ffffffffffffffffffffffffffffffffffffffff160217905550507fffa837d183240a5f25cbd643a8eade702c0c9c3e186c59c7d929e4f1a3438d8683336040516114849291906128f5565b60405180910390a1505050565b82600254811015156114d8576040517f08c379a00000000000000000000000000000000000000000000000000000000081526004016114cf90612771565b60405180910390fd5b60006003600086815260200190815260200160002090508060030160009054906101000a900473ffffffffffffffffffffffffffffffffffffffff1673ffffffffffffffffffffffffffffffffffffffff163373ffffffffffffffffffffffffffffffffffffffff16148061155357506115528533611baf565b5b1515611594576040517f08c379a000000000000000000000000000000000000000000000000000000000815260040161158b90612731565b60405180910390fd5b8060030160009054906101000a900473ffffffffffffffffffffffffffffffffffffffff1673ffffffffffffffffffffffffffffffffffffffff168473ffffffffffffffffffffffffffffffffffffffff1614806115f857506115f78585611baf565b5b1515611639576040517f08c379a0000000000000000000000000000000000000000000000000000000008152600401611630906127d1565b60405180910390fd5b6001600086815260200190815260200160002060008573ffffffffffffffffffffffffffffffffffffffff1673ffffffffffffffffffffffffffffffffffffffff1681526020019081526020016000206060604051908101604052803373ffffffffffffffffffffffffffffffffffffffff168152602001858152602001428152509080600181540180825580915050906001820390600052602060002090600302016000909192909190915060008201518160000160006101000a81548173ffffffffffffffffffffffffffffffffffffffff021916908373ffffffffffffffffffffffffffffffffffffffff1602179055506020820151816001019080519060200190611749929190611c70565b50604082015181600201555050507ff5e1aca9a1b10d753e1072d0d2631aa02b5dd19426fc594b430b934f359897688533868660405161178c949392919061291e565b60405180910390a15050505050565b80341415156117df576040517f08c379a00000000000000000000000000000000000000000000000000000000081526004016117d690612891565b60405180910390fd5b6117e7611cf0565b6002548160000181815250508281602001819052508181604001818152505033816060019073ffffffffffffffffffffffffffffffffffffffff16908173ffffffffffffffffffffffffffffffffffffffff16815250506000816080019073ffffffffffffffffffffffffffffffffffffffff16908173ffffffffffffffffffffffffffffffffffffffff168152505060008160a001901515908115158152505060008160c001901515908115158152505060008160e0019015159081151581525050600081610100019060028111156118bd57fe5b908160028111156118ca57fe5b815250508060036000600254815260200190815260200160002060008201518160000155602082015181600101908051906020019061190a929190611c70565b506040820151816002015560608201518160030160006101000a81548173ffffffffffffffffffffffffffffffffffffffff021916908373ffffffffffffffffffffffffffffffffffffffff16021790555060808201518160040160006101000a81548173ffffffffffffffffffffffffffffffffffffffff021916908373ffffffffffffffffffffffffffffffffffffffff16021790555060a08201518160040160146101000a81548160ff02191690831515021790555060c08201518160040160156101000a81548160ff02191690831515021790555060e08201518160040160166101000a81548160ff0219169083151502179055506101008201518160040160176101000a81548160ff02191690836002811115611a2857fe5b0217905550610120820151816005019080519060200190611a4a929190611d81565b509050507fd347156c0e050f531434f3eac5fc2137040ab077ca656f465275ebe566aaf115600254338585604051611a85949392919061296a565b60405180910390a1600260008154809291906001019190505550505050565b600160205282600052604060002060205281600052604060002081815481101515611acb57fe5b906000526020600020906003020160009250925050508060000160009054906101000a900473ffffffffffffffffffffffffffffffffffffffff1690806001018054600181600116156101000203166002900480601f016020809104026020016040519081016040528092919081815260200182805460018160011615610100020316600290048015611b9f5780601f10611b7457610100808354040283529160200191611b9f565b820191906000526020600020905b815481529060010190602001808311611b8257829003601f168201915b5050505050908060020154905083565b60008060036000858152602001908152602001600020905060008090505b8160050180549050811015611c63578373ffffffffffffffffffffffffffffffffffffffff168260050182815481101515611c0457fe5b9060005260206000200160009054906101000a900473ffffffffffffffffffffffffffffffffffffffff1673ffffffffffffffffffffffffffffffffffffffff161415611c5657600192505050611c6a565b8080600101915050611bcd565b5060009150505b92915050565b828054600181600116156101000203166002900490600052602060002090601f016020900481019282601f10611cb157805160ff1916838001178555611cdf565b82800160010185558215611cdf579182015b82811115611cde578251825591602001919060010190611cc3565b5b509050611cec9190611e0b565b5090565b61014060405190810160405280600081526020016060815260200160008152602001600073ffffffffffffffffffffffffffffffffffffffff168152602001600073ffffffffffffffffffffffffffffffffffffffff16815260200160001515815260200160001515815260200160001515815260200160006002811115611d7457fe5b8152602001606081525090565b828054828255906000526020600020908101928215611dfa579160200282015b82811115611df95782518260006101000a81548173ffffffffffffffffffffffffffffffffffffffff021916908373ffffffffffffffffffffffffffffffffffffffff16021790555091602001919060010190611da1565b5b509050611e079190611e30565b5090565b611e2d91905b80821115611e29576000816000905550600101611e11565b5090565b90565b611e7091905b80821115611e6c57600081816101000a81549073ffffffffffffffffffffffffffffffffffffffff021916905550600101611e36565b5090565b90565b6000611e7f8235612baa565b905092915050565b600082601f8301121515611e9a57600080fd5b8135611ead611ea882612aae565b612a81565b91508082526020830160208301858383011115611ec957600080fd5b611ed4838284612c0e565b50505092915050565b6000611ee98235612bbc565b905092915050565b60008060408385031215611f0457600080fd5b600083013567ffffffffffffffff811115611f1e57600080fd5b611f2a85828601611e87565b9250506020611f3b85828601611edd565b9150509250929050565b600060208284031215611f5757600080fd5b6000611f6584828501611edd565b91505092915050565b60008060408385031215611f8157600080fd5b6000611f8f85828601611edd565b9250506020611fa085828601611e73565b9150509250929050565b600080600060608486031215611fbf57600080fd5b6000611fcd86828701611edd565b9350506020611fde86828701611e73565b925050604084013567ffffffffffffffff811115611ffb57600080fd5b61200786828701611e87565b9150509250925092565b60008060006060848603121561202657600080fd5b600061203486828701611edd565b935050602061204586828701611e73565b925050604061205686828701611edd565b9150509250925092565b61206981612bc6565b82525050565b61207881612b4c565b82525050565b61208781612b3a565b82525050565b600061209882612af4565b8084526020840193506120aa83612ada565b60005b828110156120dc576120c086835161207e565b6120c982612b20565b91506020860195506001810190506120ad565b50849250505092915050565b60006120f382612aff565b8084526020840193508360208202850161210c85612ae7565b60005b84811015612145578383038852612127838351612576565b925061213282612b2d565b915060208801975060018101905061210f565b508196508694505050505092915050565b61215f81612b5e565b82525050565b61216e81612bd8565b82525050565b600061217f82612b15565b808452612193816020860160208601612c1d565b61219c81612c50565b602085010191505092915050565b60006121b582612b0a565b8084526121c9816020860160208601612c1d565b6121d281612c50565b602085010191505092915050565b6000602082527f456d706c6f7965722063616e6e6f74206170706c7920746f206f776e206a6f626020830152604082019050919050565b6000600f82527f416c7265616479206170706c69656400000000000000000000000000000000006020830152604082019050919050565b6000601882527f5061796d656e7420616c72656164792072656c656173656400000000000000006020830152604082019050919050565b6000601b82527f467265656c616e63657220616c72656164792073656c656374656400000000006020830152604082019050919050565b6000601f82527f4e6f7420617574686f72697a656420746f2073656e64206d65737361676573006020830152604082019050919050565b6000601282527f496e73756666696369656e742066756e647300000000000000000000000000006020830152604082019050919050565b6000601282527f4a6f6220646f6573206e6f7420657869737400000000000000000000000000006020830152604082019050919050565b6000601b82527f4f6e6c7920656d706c6f7965722063616e2063616c6c207468697300000000006020830152604082019050919050565b6000601682527f4e6f20667265656c616e6365722073656c6563746564000000000000000000006020830152604082019050919050565b6000601882527f526563697069656e74206e6f7420617574686f72697a656400000000000000006020830152604082019050919050565b6000601a82527f4a6f62206e6f74206f70656e20666f722073656c656374696f6e0000000000006020830152604082019050919050565b6000601882527f467265656c616e63657220646964206e6f74206170706c7900000000000000006020830152604082019050919050565b6000601d82527f4a6f62206e6f74206f70656e20666f72206170706c69636174696f6e730000006020830152604082019050919050565b6000601f82527f4e6f7420617574686f72697a656420746f2076696577206d65737361676573006020830152604082019050919050565b6000601f82527f5265656e7472616e637947756172643a207265656e7472616e742063616c6c006020830152604082019050919050565b6000602782527f457363726f7720616d6f756e74206d757374206d6174636820746865206a6f6260208301527f20627564676574000000000000000000000000000000000000000000000000006040830152606082019050919050565b600060608301600083015161258e600086018261207e565b50602083015184820360208601526125a682826121aa565b91505060408301516125bb60408601826125c6565b508091505092915050565b6125cf81612ba0565b82525050565b60006060820190506125ea600083018661207e565b81810360208301526125fc81856121aa565b905061260b60408301846125c6565b949350505050565b6000602082019050818103600083015261262d818461208d565b905092915050565b6000602082019050818103600083015261264f81846120e8565b905092915050565b600060a08201905081810360008301526126718188612174565b905061268060208301876125c6565b61268d604083018661207e565b61269a606083018561207e565b6126a76080830184612165565b9695505050505050565b600060208201905081810360008301526126ca816121e0565b9050919050565b600060208201905081810360008301526126ea81612217565b9050919050565b6000602082019050818103600083015261270a8161224e565b9050919050565b6000602082019050818103600083015261272a81612285565b9050919050565b6000602082019050818103600083015261274a816122bc565b9050919050565b6000602082019050818103600083015261276a816122f3565b9050919050565b6000602082019050818103600083015261278a8161232a565b9050919050565b600060208201905081810360008301526127aa81612361565b9050919050565b600060208201905081810360008301526127ca81612398565b9050919050565b600060208201905081810360008301526127ea816123cf565b9050919050565b6000602082019050818103600083015261280a81612406565b9050919050565b6000602082019050818103600083015261282a8161243d565b9050919050565b6000602082019050818103600083015261284a81612474565b9050919050565b6000602082019050818103600083015261286a816124ab565b9050919050565b6000602082019050818103600083015261288a816124e2565b9050919050565b600060208201905081810360008301526128aa81612519565b9050919050565b60006020820190506128c660008301846125c6565b92915050565b60006040820190506128e160008301856125c6565b6128ee602083018461207e565b9392505050565b600060408201905061290a60008301856125c6565b6129176020830184612060565b9392505050565b600060808201905061293360008301876125c6565b6129406020830186612060565b61294d604083018561207e565b818103606083015261295f8184612174565b905095945050505050565b600060808201905061297f60008301876125c6565b61298c6020830186612060565b818103604083015261299e8185612174565b90506129ad60608301846125c6565b95945050505050565b60006060820190506129cb60008301866125c6565b6129d86020830185612060565b6129e560408301846125c6565b949350505050565b600061012082019050612a03600083018c6125c6565b8181036020830152612a15818b6121aa565b9050612a24604083018a6125c6565b612a31606083018961207e565b612a3e608083018861206f565b612a4b60a0830187612156565b612a5860c0830186612156565b612a6560e0830185612156565b612a73610100830184612165565b9a9950505050505050505050565b6000604051905081810181811067ffffffffffffffff82111715612aa457600080fd5b8060405250919050565b600067ffffffffffffffff821115612ac557600080fd5b601f19601f8301169050602081019050919050565b6000602082019050919050565b6000602082019050919050565b600081519050919050565b600081519050919050565b600081519050919050565b600081519050919050565b6000602082019050919050565b6000602082019050919050565b6000612b4582612b80565b9050919050565b6000612b5782612b80565b9050919050565b60008115159050919050565b6000600382101515612b7857fe5b819050919050565b600073ffffffffffffffffffffffffffffffffffffffff82169050919050565b6000819050919050565b6000612bb582612b80565b9050919050565b6000819050919050565b6000612bd182612bea565b9050919050565b6000612be382612b6a565b9050919050565b6000612bf582612bfc565b9050919050565b6000612c0782612b80565b9050919050565b82818337600083830152505050565b60005b83811015612c3b578082015181840152602081019050612c20565b83811115612c4a576000848401525b50505050565b6000601f19601f830116905091905056fea265627a7a723058202f0f80cab0c9f1a4a2d9eea568daa3ba7e6a00180664225b2c1a37cf76daa73a6c6578706572696d656e74616cf50037",
  "source": "pragma solidity ^0.5.0;\r\npragma experimental ABIEncoderV2;\r\n\r\nimport \"@openzeppelin/contracts/utils/ReentrancyGuard.sol\";\r\ncontract JobBoard is ReentrancyGuard {\r\n    enum JobStatus { Open, InProgress, Completed }\r\n\r\n    struct Job {\r\n        uint256 jobId;\r\n        string title;\r\n        uint256 budget;\r\n        address employer;\r\n        address payable freelancer;\r\n        bool isTaken;\r\n        bool isCompleted;\r\n        bool isPaid;\r\n        JobStatus status;\r\n        address[] applicants;\r\n    }\r\n\r\n    // === Modified for IPFS Messaging ===\r\n    struct MessageRef {\r\n        address sender;\r\n        string ipfsCid;\r\n        uint256 timestamp;\r\n    }\r\n\r\n    // jobId => participant address => message references\r\n    mapping(uint256 => mapping(address => MessageRef[])) public jobMessageRefs;\r\n\r\n    // === End Messaging Variables ===\r\n\r\n    uint256 public jobCount;\r\n    mapping(uint256 => Job) public jobs;\r\n\r\n    event JobPosted(uint256 jobId, address employer, string title, uint256 budget);\r\n    event JobApplied(uint256 jobId, address freelancer);\r\n    event PaymentReleased(uint256 jobId, address freelancer, uint256 amount);\r\n    event FreelancerSelected(uint256 jobId, address freelancer);\r\n\r\n    // === Modified IPFS Messaging Event ===\r\n    event MessageSent(uint256 jobId, address from, address to, string ipfsCid);\r\n\r\n    modifier onlyEmployer(uint256 _jobId) {\r\n        require(msg.sender == jobs[_jobId].employer, \"Only employer can call this\");\r\n        _;\r\n    }\r\n\r\n    modifier jobExists(uint256 _jobId) {\r\n        require(_jobId < jobCount, \"Job does not exist\");\r\n        _;\r\n    }\r\n\r\n    function postJob(string memory _title, uint256 _budget) public payable {\r\n        require(msg.value == _budget, \"Escrow amount must match the job budget\");\r\n\r\n        Job memory newJob;\r\n        newJob.jobId = jobCount;\r\n        newJob.title = _title;\r\n        newJob.budget = _budget;\r\n        newJob.employer = msg.sender;\r\n        newJob.freelancer = address(0);\r\n        newJob.isTaken = false;\r\n        newJob.isCompleted = false;\r\n        newJob.isPaid = false;\r\n        newJob.status = JobStatus.Open;\r\n\r\n        jobs[jobCount] = newJob;\r\n\r\n        emit JobPosted(jobCount, msg.sender, _title, _budget);\r\n        jobCount++;\r\n    }\r\n\r\n    function applyForJob(uint256 _jobId) public jobExists(_jobId) {\r\n        Job storage job = jobs[_jobId];\r\n        require(job.status == JobStatus.Open, \"Job not open for applications\");\r\n        require(msg.sender != job.employer, \"Employer cannot apply to own job\");\r\n\r\n        for (uint256 i = 0; i < job.applicants.length; i++) {\r\n            require(job.applicants[i] != msg.sender, \"Already applied\");\r\n        }\r\n\r\n        job.applicants.push(msg.sender);\r\n        emit JobApplied(_jobId, msg.sender);\r\n    }\r\n\r\n    function selectFreelancer(uint256 _jobId, address _freelancer) public jobExists(_jobId) onlyEmployer(_jobId) {\r\n        Job storage job = jobs[_jobId];\r\n        require(job.status == JobStatus.Open, \"Job not open for selection\");\r\n        require(job.freelancer == address(0), \"Freelancer already selected\");\r\n\r\n        bool found = false;\r\n        for (uint256 i = 0; i < job.applicants.length; i++) {\r\n            if (job.applicants[i] == _freelancer) {\r\n                found = true;\r\n                break;\r\n            }\r\n        }\r\n        require(found, \"Freelancer did not apply\");\r\n\r\n        job.freelancer = address(uint160(_freelancer));\r\n        job.status = JobStatus.InProgress;\r\n        job.isTaken = true;\r\n\r\n        emit FreelancerSelected(_jobId, _freelancer);\r\n    }\r\n\r\n    function releasePayment(uint256 _jobId) public jobExists(_jobId) onlyEmployer(_jobId) nonReentrant {\r\n        Job storage job = jobs[_jobId];\r\n        require(job.freelancer != address(0), \"No freelancer selected\");\r\n        require(address(this).balance >= job.budget, \"Insufficient funds\");\r\n        require(!job.isPaid, \"Payment already released\");\r\n\r\n        job.isPaid = true;\r\n        job.status = JobStatus.Completed;\r\n        job.isCompleted = true;\r\n\r\n        job.freelancer.transfer(job.budget); // ETH transfer after state update\r\n\r\n        emit PaymentReleased(_jobId, job.freelancer, job.budget);\r\n    }\r\n\r\n    function getApplicants(uint256 _jobId) public view jobExists(_jobId) onlyEmployer(_jobId) returns (address[] memory) {\r\n        return jobs[_jobId].applicants;\r\n    }\r\n\r\n    function getJob(uint256 _jobId) public view jobExists(_jobId)\r\n        returns (string memory, uint256, address, address, JobStatus)\r\n    {\r\n        Job storage job = jobs[_jobId];\r\n        return (job.title, job.budget, job.employer, job.freelancer, job.status);\r\n    }\r\n\r\n    // === IPFS Messaging Functions ===\r\n\r\n    function sendMessageRef(uint256 _jobId, address _to, string memory _ipfsCid) public jobExists(_jobId) {\r\n        Job storage job = jobs[_jobId];\r\n\r\n        // Only employer or applicant can send message\r\n        require(\r\n            msg.sender == job.employer || isApplicant(_jobId, msg.sender),\r\n            \"Not authorized to send messages\"\r\n        );\r\n\r\n        // Recipient must also be part of job\r\n        require(\r\n            _to == job.employer || isApplicant(_jobId, _to),\r\n            \"Recipient not authorized\"\r\n        );\r\n\r\n        jobMessageRefs[_jobId][_to].push(MessageRef({\r\n            sender: msg.sender,\r\n            ipfsCid: _ipfsCid,\r\n            timestamp: block.timestamp\r\n        }));\r\n\r\n        emit MessageSent(_jobId, msg.sender, _to, _ipfsCid);\r\n    }\r\n\r\n    function getMessageRefs(uint256 _jobId, address _participant)\r\n        public\r\n        view\r\n        jobExists(_jobId)\r\n        returns (MessageRef[] memory)\r\n    {\r\n        require(\r\n            msg.sender == jobs[_jobId].employer || isApplicant(_jobId, msg.sender),\r\n            \"Not authorized to view messages\"\r\n        );\r\n        return jobMessageRefs[_jobId][_participant];\r\n    }\r\n\r\n    function isApplicant(uint256 _jobId, address _user) internal view returns (bool) {\r\n        Job storage job = jobs[_jobId];\r\n        for (uint256 i = 0; i < job.applicants.length; i++) {\r\n            if (job.applicants[i] == _user) {\r\n                return true;\r\n            }\r\n        }\r\n        return false;\r\n    }\r\n}",
  "sourcePath": "C:/Users/ark_1/Downloads/eth-todo-list-20250417T174138Z-001/eth-todo-list/contracts/JobBoard.sol",
  "compiler": {
    "name": "solc",
    "version": "0.5.0+commit.1d4f565a.Emscripten.clang"
  },
  "schemaVersion": "3.0.1",
  "updatedAt": "2025-04-26T09:35:39.332Z",
  "devdoc": {
    "methods": {}
  },
  "userdoc": {
    "methods": {}
  }
}